:100000007EC000009DC000009BC0000099C00000A1
:1000100097C0000095C0000093C0000091C0000090
:100020008FC000008DC000008BC0000089C00000A0
:1000300087C0000085C0000083C0000081C00000B0
:100040007FC000003DC200007BC0000079C00000FE
:1000500077C0000075C0000073C0000071C00000D0
:100060006FC000006DC000006BC0000069C00000E0
:1000700067C0000065C0000063C0000061C00000F0
:100080005FC000005DC000005BC0000059C0000000
:1000900057C0000055C0000053C0000051C0000010
:1000A0004FC000004DC000004BC0000049C0000020
:1000B00047C0000045C0000043C0000041C0000030
:1000C0003FC000003DC000003BC0000039C0000040
:1000D00037C0000035C0000033C0000031C0000050
:1000E0002FC000009F0890059F089F0577069B067C
:1000F000D706DE06E006270768076A07FD07112412
:100100001FBECFEFD1E2DEBFCDBF00E00CBF13E0DA
:10011000A0E0B2E0ECEFF9E100E00BBF02C0079015
:100120000D92A43AB107D9F727E1A4EAB3E001C0E0
:100130001D92AB3AB207E1F70E947C090C94FC0CCB
:100140005FCF0F921F922F923F924F925F926F92CA
:100150007F928F929F92AF92BF92CF92DF92EF9257
:10016000FF920F931F932F933F934F935F936F9340
:100170007F938F939F93AF93BF93CF93DF93EF932F
:10018000FF93FCB7FF93FFB7FF93EDB7FEB7E09384
:10019000A317F093A417E0919D17F0919E17EDBF60
:1001A000FEBFFF91FFBFFF91FCBFFF91EF91DF9179
:1001B000CF91BF91AF919F918F917F916F915F91FF
:1001C0004F913F912F911F910F91FF90EF90DF90F2
:1001D000CF90BF90AF909F908F907F906F905F90E7
:1001E0004F903F902F901F900F9018950F921F9255
:1001F0002F923F924F925F926F927F928F929F9237
:10020000AF92BF92CF92DF92EF92FF920F931F9324
:100210002F933F934F935F936F937F938F939F930E
:10022000AF93BF93CF93DF93EF93FF93FCB7FF930D
:10023000FFB7FF93EDB7FEB7E0939D17F0939E17BE
:10024000E091A317F091A417EDBFFEBFFF91FFBF90
:10025000FF91FCBFFF91EF91DF91CF91BF91AF91E3
:100260009F918F917F916F915F914F913F912F91CE
:100270001F910F91FF90EF90DF90CF90BF90AF90C4
:100280009F908F907F906F905F904F903F902F90B6
:100290001F900F9008952091AC033091AD03E0E1E1
:1002A000F0E08FEF9FEF4BE050E06EE071E02F5FEA
:1002B0003F4F2F703327269FD001279FB00D369FC9
:1002C000B00D1124AA54B94F1396AC91A130E9F4A2
:1002D000269FD001279FB00D369FB00D1124AA5440
:1002E000B94F1296AC91B0E0A417B50774F4822F01
:1002F000932F269FD001279FB00D369FB00D11245C
:10030000AA54B94F12964C9150E0319781F6089556
:100310001816190684F52091B6063091B7062817ED
:10032000390799F021E030E06EE071E0269FF0019E
:10033000279FF00D369FF00D1124EA54F94F4081AC
:1003400051814817590779F402C020E030E04EE0AF
:1003500051E0249FC001259F900D349F900D1124E2
:100360008A54994F08952F5F3F4F20313105F1F6A0
:1003700080E090E0089580E090E00895009751F0CB
:10038000209186063091870682179307C1F021E0FD
:1003900030E006C081E080939C1780E090E00895F3
:1003A000F901EE0FFF1FE20FF31FEE0FFF1FEA57D9
:1003B000F94F408151818417950769F402C020E00C
:1003C00030E0C901880F991F820F931F880F991F72
:1003D0008A57994F08952F5F3F4F2830310501F715
:1003E00089E080939C1780E090E00895009759F091
:1003F0002091AE033091AF0382179307B9F021E04B
:1004000030E06BE506C081E080939C1780E090E0CF
:100410000895629FF001639FF00D1124E255FC4F97
:10042000408151818417950761F402C020E030E0DB
:100430004BE5429FC001439F900D112482559C4F74
:1004400008952F5F3F4F2830310519F78DE08093D5
:100450009C1780E090E008952091C2073091C30777
:100460008217930799F021E030E06EE071E0269F5B
:10047000F001279FF00D369FF00D1124EE53F84F39
:10048000408151814817590789F402C020E030E0CB
:100490008EE091E0289FF001299FF00D389FF00D2C
:1004A0001124EA54F94F8081918108952F5F3F4FC5
:1004B00020313105E1F68FEF9FEF0895789408958C
:1004C0001F920F920FB60F9211248F939F938091DA
:1004D000A4039091A50301969093A5038093A40390
:1004E0009F918F910F900FBE0F901F901895809144
:1004F000A4039091A503892B09F46FC080E090E0DC
:100500002EE031E061E0829FF001839FF00D929F29
:10051000F00D1124EA54F94F4381443029F5A0919C
:10052000A403B091A503829FF001839FF00D929FD9
:10053000F00D1124EA54F94F468157814A1B5B0B99
:10054000578346834681578114161506ECF1829F26
:10055000F001839FF00D929FF00D1124EA54F94FA2
:1005600063831782168230C0829FF001839FF00D53
:10057000929FF00D1124EA54F94F4481443021F543
:10058000A091A403B091A503829FF001839FF00D79
:10059000929FF00D1124EA54F94F468157814A1B6E
:1005A0005B0B57834683468157811416150664F00A
:1005B000829FF001839FF00D929FF00D1124EA5469
:1005C000F94F64831782168201968031910509F0F4
:1005D0009ACF1092A5031092A40308950F931F932E
:1005E000CF93DF9358DEEC01992334F5C091AC032F
:1005F000D091AD0378940EE011E006C02196CF7043
:10060000DD27F89474DF7894C09FF001C19FF00D4E
:10061000D09FF00D1124EA54F94F8381813071F796
:10062000F89439DEEC0199233CF484E392E09F9343
:100630008F93F2D60F900F90D093AD03C093AC037D
:100640002091AC033091AD038EE091E0289FF00142
:10065000299FF00D389FF00D1124EA54F94FF093C3
:10066000A017E0939F178285938590939E178093A0
:100670009D1782E08383DF91CF911F910F910895A1
:10068000EF92FF920F931F93CF93DF93EC01809132
:10069000AA039091AB03409749F08091B906882353
:1006A000D9F021E030E0AEE0B1E004C084E0809316
:1006B0009C1762C02A9FF0012B9FF00D3A9FF00D0E
:1006C0001124EA54F94F9381992341F02F5F3F4F52
:1006D0002031310579F702C020E030E08091AA0393
:1006E0009091AB0301969093AB038093AA038EE0A5
:1006F00091E0289FF001299FF00D389FF00D112403
:100700009F012F53384F8F010E53194F80E091E016
:10071000D8018C011D9201501040E1F7EA54F94FC5
:10072000DF01A55FBE4F82E099E08C93D90111975C
:100730009C9311971C921197CC931197DC9311976E
:100740001C92809196179091971701969093971706
:1007500080939617918380836283518740871582A7
:1007600081E083832852310933872287E45FFE4F7B
:10077000D183C08310929C17DF91CF911F910F916D
:10078000FF90EF9008958091A8039091A903089796
:1007900048F48091860690918706892BC9F081E004
:1007A00090E004C088E080939C170895FC01EE0F50
:1007B000FF1FE80FF91FEE0FFF1FEA57F94F2081C7
:1007C0003181232B39F001968830910579F702C0E9
:1007D00080E090E020919A1730919B172F5F3F4F58
:1007E00030939B1720939A17FC01EE0FFF1FDF0138
:1007F000A80FB91FAA0FBB1FAA57B94F11963C9358
:100800002E93FD01138212828091A8039091A90377
:1008100001969093A9038093A80310929C170895C2
:10082000CF938091A6039091A703089750F48091ED
:10083000AE039091AF03892BC9F041E050E02BE566
:1008400004C08CE080939C176BC0249FF001259F0F
:10085000F00D1124E255FC4F80819181892B41F0EC
:100860004F5F5F4F4830510581F702C040E050E0D4
:100870008091A1179091A21701969093A21780934F
:10088000A1172BE5249FF001259FF00D1124E255BF
:10089000FC4F918380831382128280E090E06BE5AD
:1008A000649F9001659F300D1124DF01CBE06FEF55
:1008B0007FEFFD01E80FF91FC6A3FC013396EE0F91
:1008C000FF1FE20FF31FE255FC4F71836083FC01B1
:1008D0007B96EE0FFF1FE20FF31FE255FC4F1182D4
:1008E000108201968031910521F72BE5249FC001EC
:1008F000259F900D112482559C4FFC01EA5AFF4F11
:10090000118210823296118210828091A6039091FA
:10091000A70301969093A7038093A60310929C17B8
:10092000CF910895E1E8F0E0808184608083808148
:100930008C7F808380818860808380818C7E8083AF
:1009400081E792E09093890080938800109285005F
:1009500010928400EFE6F0E0808182608083089549
:100960001092AB031092AA031092A9031092A8034D
:1009700010929917109298171092A5031092A40341
:100980001092AD031092AC03109297171092961725
:1009900010929B1710929A171092A2171092A117FB
:1009A00010929C1780EE90E1E6EBF6E0DF019C01EF
:1009B0001D9221503040E1F780E090E02EE031E0E0
:1009C000829FF001839FF00D929FF00D1124EA5455
:1009D000F94F138201968031910591F780E3E6E8A3
:1009E000F6E0DF011D928A95E9F780E090E0FC01D6
:1009F000EE0FFF1FE80FF91FEE0FFF1FEA57F94F29
:100A00001182108201968830910589F788ED92E075
:100A1000EEEAF3E0DF019C011D9221503040E1F746
:100A200080E090E0FC01EE0FFF1FE80FF91FEE0FD2
:100A3000FF1FEA57F94F1182108201968830910505
:100A400089F784E084B908952F923F924F925F9284
:100A50006F927F928F929F92AF92BF92CF92DF92CE
:100A6000EF92FF920F931F93CF93DF9300D0CDB7F8
:100A7000DEB78091981790919917892B09F068C378
:100A80008091AA039091AB03892B09F461C3F89478
:100A900081E090E0909399178093981743DF9EDD53
:100AA0006894992491F8BB24B3940F2EFBE0AF2EE9
:100AB000F02D44244A94542C22242394312C0F2EBC
:100AC000FBE5CF2EF02D812C1982E0919F17F0913C
:100AD000A01715828285938590939E1780939D170A
:100AE00030DBE0919F17F091A01780919D179091B6
:100AF0009E1793878287FBDCE0909F17F090A017EA
:100B0000FB82EA82D70115968C9190E08D30910599
:100B100008F01BC3FC018827EE58FF4F8F4F74C4A9
:100B2000AA81BB8118964D915C91199712966C9190
:100B30001297A45FBE4F8D919C91A2DDC6CF00E0BD
:100B400010E0C09EF001C19EF00D1124E255FC4F53
:100B500022813381E0919F17F091A01780819181CC
:100B60002817390709F0ACC0C09EF001C19EF00DF6
:100B70001124EC5FFB4F80819181892B09F495C092
:100B8000C09EF001C19EF00D1124EA5FFB4F608111
:100B900071816F5F7F4F8A82E980EB82FA2C80E05F
:100BA00090E0C09EA001C19E500D11249A012255D3
:100BB0003C4FF901E80FF91FE6A1EF15D8F4F90150
:100BC000E80FF91FF6A0FC017B96EE0FFF1FE40F64
:100BD000F51FE255FC4F60817181FC013396EE0FE9
:100BE000FF1FE40FF51FE255FC4FA081B181BB83CD
:100BF000AA832DC0F901E80FF91FA6A1AF1127C0E4
:100C0000FC017B96EE0FFF1FE40FF51FE255FC4F32
:100C10000190F081E02D6E177F07C0F4FC017B96F8
:100C2000EE0FFF1FE40FF51FE255FC4F608171814D
:100C3000FC013396EE0FFF1FE40FF51FE255FC4F4A
:100C4000E080F180FB82EA82FA2E01C0FA2E019642
:100C50008031910509F0ADCFC09EC001C19E900DBD
:100C600011249C0122553C4F3901D90197965C9281
:100C70004E929697D696AC92F901EA5AFF4F11829E
:100C80001082808191810197918380838A819B81E9
:100C90003FDB2A813B81F30133832283E65AFF4FF6
:100CA000F082DC011396BC920BC0C09EF001C19E85
:100CB000F00D1124E255FC4F13821282158214822A
:100CC0000F5F1F4F0830110509F03BCFE0919F17D0
:100CD000F091A01713828091AA039091AB03019722
:100CE0009093AB038093AA032A9878DCEECEAA8176
:100CF000BB8116968D919C9117970ADB009721F482
:100D000085E080939C17E1CEFC012381222311F022
:100D1000233021F486E080939C17D7CE223011F443
:100D2000B48202C0FC01248323E0DC0113962C93DF
:100D300010929C17CACEAA81BB8116968D919C9168
:100D40001797E6DA9B838A83892B21F485E08093C9
:100D50009C17BBCEEA81FB818381833021F087E041
:100D600080939C17B2CEAA81BB8114968C911F925E
:100D70008F93EBE5F2E0FF93EF934ED3AA81BB8113
:100D800014968C9114970F900F900F900F908230C3
:100D900019F41396BC9203C0EA81FB81838383E03C
:100DA000AA81BB8114968C9310929C178ECE84E0FE
:100DB000AA81BB8113968C9311DC87CEE4DC85CEAF
:100DC000AA81BB8116968D919C911797D7DAFC0169
:100DD000892B99F182819381009769F0A0919F17E7
:100DE000B091A0172D913C918217930721F089E0D3
:100DF00080939C1722C084819581892B81F0138276
:100E0000128215821482118210828091A80390911F
:100E1000A90301979093A9038093A8030EC0A09102
:100E20009F17B091A0178D919C9111979383828306
:100E300085E013968C9310929C17E0919F17F09188
:100E4000A0178381823009F440CEC8DB3ECEAA8150
:100E5000BB8116968D919C91179790DA9B838A831C
:100E60000097A1F1FC0184819581892B11F43582D1
:100E70002482AA81BB8112968D919C911397009731
:100E800019F4A0929C1722C043DA009721F485E060
:100E900080939C171BC0FC0123812530B9F4AA81E3
:100EA000BB8113961C921E92129715961C921E924D
:100EB00014971D921C922091A8033091A9032150F0
:100EC00031093093A9032093A803B38287DBFDCDBA
:100ED000A7DCFBCDAA81BB8116968D919C911797BB
:100EE00085DA9B838A83FC018281938111DAEA800F
:100EF000FB80E114F10409F4E8CDD70112962D919D
:100F00003C9113972115310599F4E0919F17F091C9
:100F1000A0178081918113969C938E9312971596BA
:100F20003C922E9214978281A65ABF4F8C93CDCDBE
:100F3000A0919F17B091A0174D915C911197241724
:100F4000350741F4EA81FB8184819581019695837F
:100F50008483BBCD26E013962C931397EA81FB8103
:100F6000EA5AFF4F208131812F5F3F4F3183208329
:100F7000EA81FB81E85AFF4F608171816F5F7F4F8B
:100F800071836083EA81FB81268137812F3F3F4F48
:100F900059F0EA81FB81389621E030E0419151918E
:100FA0004F3F5F4FC9F402C020E030E04D915C91AB
:100FB0001197F901EE0FFF1FEA80FB80EE0DFF1D78
:100FC0005783468377AB66AB12964C911297F70125
:100FD000E20FF31F46A305C02F5F3F4F20313105BD
:100FE000E9F612963C911297FC012281321718F40F
:100FF00012962C912283F2DA68CDAA81BB811696D3
:101000008D919C911797F2D99B838A83FC018281F1
:1010100093817ED98C01EA80FB80E114F10409F40C
:1010200054CDE0919F17F091A01780819181D70155
:1010300012962D913C9113972817390709F045CD49
:1010400014968D919C9115978230910530F00197FF
:1010500015969C938E93149738CDEA81FB81EA5ABA
:10106000FF4F608171816115710509F458C0EA81F3
:10107000FB81E85AFF4F408151814F5F5F4F8A816A
:101080009B818696EA81FB813696DC01E12CD12C8E
:10109000FA2C2D912F1530F440A951A9E080D18070
:1010A000F22E0DC02F110BC060A871A84615570570
:1010B00028F4E080D180F22EA30101C0F22E3296F6
:1010C0008E179F0731F74A815B81DA0197965C9210
:1010D0004E929697D696AC92FA01EA5AFF4F61501B
:1010E0007109718360838E2D9D2D12D9EA81FB8158
:1010F000E65AFF4F2081D80112962C93AA81BB811A
:101100001296EC9212971396DC92F082FC01B38255
:10111000E0919F17F091A017B38260DAD6CCAA8134
:10112000BB8113961C921E92129715961C921E92CA
:101130001497A65ABF4F8C91F8018283C6CCAA811E
:10114000BB811396BC924ADAC0CC90929C17BDCC5E
:101150000F900F900F90DF91CF911F910F91FF9003
:10116000EF90DF90CF90BF90AF909F908F907F9047
:101170006F905F904F903F902F900895F1CB08951E
:1011800063CC0895EF92FF921F93CF93DF93EC010E
:10119000162F7A018091981790919917892B81F0D9
:1011A0008DD9E0919F17F091A0171283F186E08608
:1011B00081E08583E45FFE4FD183C08317D802C0EE
:1011C000CE015EDA80919C178430A1F08091961751
:1011D000909197179F938F938EE692E09F938F93B2
:1011E0001BD180919617909197170F900F900F90A9
:1011F0000F9002C080E090E0DF91CF911F91FF90AF
:10120000EF9008958091981790919917892B21F468
:1012100083E080939C1708952A9A50D9E0919F17F4
:10122000F091A01783E085830C94F60008958091D7
:10123000981790919917892B21F483E080939C173C
:1012400008953CD9E0919F17F091A01782E0858323
:101250000C94F6000895CF93DF9320919817309166
:101260009917232B21F483E080939C170CC0EC0189
:1012700025D9E0919F17F091A01784E08583D7834B
:10128000C6830E94F600DF91CF910895CF93DF933C
:101290002091981730919917232B21F483E08093A4
:1012A0009C170CC0EC010AD9E0919F17F091A01790
:1012B00085E08583D783C6830E94F600DF91CF91B6
:1012C0000895CF93DF932091981730919917232B8E
:1012D00021F483E080939C170CC0EC01EFD8E091DF
:1012E0009F17F091A01786E08583D783C6830E945D
:1012F000F600DF91CF9108956BD07BD085EA92E024
:101300009ED032C008952F9A83EB92E098D082E36A
:1013100090E0D7DF8CDFF7CF2F9886EB92E08FD06D
:1013200082E390E0CEDF83DFF7CF89EB92E087D0D6
:1013300082E390E0C6DF7BDFF8CF8CE291E0C1DF93
:101340008CEB92E07CD08CE899E086D884DF6FDF6C
:101350008CE291E0B6DF8DEC92E071D08CE899E000
:101360007BD894DF64DFE9CF09DF80E884B942ED00
:1013700050E066E083E899E005DF4DEC50E066E080
:101380008CE899E0FFDE40E050E064E08DE999E010
:10139000F9DE4DEC50E066E085E999E0F3DEF0CE51
:1013A0000895CF93C82F8A3011F48DE0FADFE0EC76
:1013B000F0E0808185FFFDCFC093C600CF910895F6
:1013C000E0ECF0E080818823ECF78091C60008957E
:1013D0001092C50087E68093C400E0ECF0E08081C5
:1013E0008D7F808386E08093C20088E18093C10076
:1013F0000895E5EAF7E18EE092E09383828380E04E
:1014000092E0918380830895EE0FFF1F881F8BBFAA
:101410000790F691E02D1994CF93DF93CDB7DEB707
:10142000AE014A5F5F4FFA0161917191AF01809106
:10143000A7179091A81733D0DF91CF9108950F93FC
:101440001F93CF93DF93E091A717F091A817238103
:1014500021FF1BC08C01D0E0C0E0F80181918F0119
:101460006091A7177091A817DB011896ED91FC9178
:101470001997882331F01995892B79F3DFEFCFEF96
:10148000ECCF8AE01995892B19F08FEF9FEF02C0FE
:101490008D2F9C2FDF91CF911F910F9108952F9247
:1014A0003F924F925F926F927F928F929F92AF92F4
:1014B000BF92CF92DF92EF92FF920F931F93CF9341
:1014C000DF93CDB7DEB72B970FB6F894DEBF0FBE14
:1014D000CDBF6C017B018A01FC01178216828381DA
:1014E00081FFBFC1CE0101963C01F6019381F70156
:1014F00093FD859193FF81917F01882309F4ADC10C
:10150000853239F493FD859193FF81917F01853276
:1015100021F4B60190E0D6D1E8CF912C212C312CCA
:10152000FFE1F315D8F08B3279F038F4803279F09E
:101530008332A1F4232D20611DC08D3261F08033F0
:1015400069F4232D216016C0832D8260382EE32D8F
:10155000E4603E2E2AC0F32DF8601DC037FC2DC07C
:1015600020ED280F2A3040F08E32B9F436FC75C1D8
:10157000232D2064322E19C036FE06C08AE0989EC4
:10158000200D1124922E11C0EAE02E9E200D112470
:10159000222EF32DF0623F2E08C08C3621F4832DCD
:1015A0008068382E02C0883641F4F70193FD85919A
:1015B00093FF81917F018111B3CF982F9F7D955427
:1015C000933028F40C5F1F4F9FE399830DC083363F
:1015D00031F0833771F0833509F055C020C0F80130
:1015E000808189830E5F1F4F88248394912C53013F
:1015F00012C02801F2E04F0E511CF801A080B1800A
:1016000036FE03C0692D70E002C06FEF7FEFC501A9
:101610004ED14C018201F32DFF773F2E15C02801DA
:1016200022E0420E511CF801A080B18036FE03C0BA
:10163000692D70E002C06FEF7FEFC5012DD14C0125
:10164000F32DF0683F2E820133FC19C0822D90E00B
:1016500088169906A0F4B60180E290E033D12A946E
:10166000F5CFF50137FC859137FE81915F01B60119
:1016700090E028D121102A9421E0821A9108811447
:10168000910479F7E1C0843611F0893639F5F80113
:1016900037FE07C060817181828193810C5F1F4F8B
:1016A00008C060817181072E000C880B990B0E5FBA
:1016B0001F4FF32DFF763F2E97FF09C09095809521
:1016C000709561957F4F8F4F9F4FF0683F2E2AE0B6
:1016D00030E0A30133D1882E861844C0853731F419
:1016E000232D2F7EB22E2AE030E025C0932D997F46
:1016F000B92E8F36C1F018F4883579F0AEC0803736
:1017000019F0883721F0A9C0E92FE061BE2EB4FEA0
:101710000DC0FB2DF460BF2E09C034FE0AC0292F76
:101720002660B22E06C028E030E005C020E130E09F
:1017300002C020E132E0F801B7FE07C0608171818C
:10174000828193810C5F1F4F06C06081718180E0B0
:1017500090E00E5F1F4FA301F1D0882E8618FB2D5D
:10176000FF773F2E36FE0DC0232D2E7FA22E89142B
:1017700058F434FE0BC032FC09C0832D8E7EA82E97
:1017800005C0B82CA32C03C0B82C01C0B92CA4FEF2
:101790000FC0FE01E80DF11D8081803321F49A2DE8
:1017A000997EA92E09C0A2FE06C0B394B39404C0CA
:1017B0008A2D867809F0B394A3FC10C0A0FE06C061
:1017C000B21480F4280C922C9B180DC0B21458F45B
:1017D000B60180E290E076D0B394F8CFB21418F45A
:1017E0002B1802C0982C212CA4FE0FC0B60180E358
:1017F00090E068D0A2FE16C0A1FC03C088E790E08C
:1018000002C088E590E0B6010CC08A2D867851F0C0
:10181000A1FE02C08BE201C080E2A7FC8DE2B6010E
:1018200090E050D0891430F4B60180E390E04AD0C3
:101830009A94F8CF8A94F301E80DF11D8081B601E6
:1018400090E040D08110F6CF222009F44ECEB601B0
:1018500080E290E037D02A94F7CFF6018681978115
:1018600002C08FEF9FEF2B960FB6F894DEBF0FBE2E
:10187000CDBFDF91CF911F910F91FF90EF90DF903F
:10188000CF90BF90AF909F908F907F906F905F9020
:101890004F903F902F900895FC010590615070404B
:1018A0000110D8F7809590958E0F9F1F0895FC0129
:1018B0006150704001900110D8F7809590958E0F7F
:1018C0009F1F08950F931F93CF93DF93FB012381F5
:1018D00021FD03C08FEF9FEF2CC022FF16C0468171
:1018E0005781248135814217530744F4A081B18187
:1018F0009D012F5F3F4F318320838C932681378159
:101900002F5F3F4F3783268314C08B01EC01FB010F
:101910000084F185E02D1995892BE1F6D801169602
:101920008D919C911797019617969C938E9316977D
:10193000CE01DF91CF911F910F910895FA01AA274F
:10194000283051F1203181F1E8946F936E7F6E5F02
:101950007F4F8F4F9F4FAF4FB1E03ED0B4E03CD0B0
:10196000670F781F891F9A1FA11D680F791F8A1F93
:10197000911DA11D6A0F711D811D911DA11D20D0FA
:1019800009F468943F912AE0269F11243019305DB4
:101990003193DEF6CF010895462F4770405D4193A5
:1019A000B3E00FD0C9F7F6CF462F4F70405D4A33F2
:1019B00018F0495D31FD4052419302D0A9F7EACFBA
:1019C000B4E0A6959795879577956795BA95C9F7E9
:1019D00000976105710508959B01AC010A2E0694DC
:1019E0005795479537952795BA95C9F7620F731F95
:0C19F000841F951FA01D0895F894FFCFE0
:1019FC0000000001000000000000E00900000000F1
:101A0C00000200000000D109000000000920546110
:101A1C00736B3A20256420092053746174653A2055
:101A2C0025640A00534F4D455448494E47205745AD
:101A3C004E542057524F4E47205749544820534339
:101A4C00484544554C4C4552214E002A2A2A4C619B
:101A5C0073742053746174653A2025640A004372D0
:101A6C006561746564205049443A2025640A00433A
:101A7C00726561746564204576656E743A202564E0
:101A8C000A0043726561746564204D757465783A1B
:101A9C002025640A005354444F55542D3E55415251
:101AAC005421004121004221004321005355535041
:101ABC00454E44494E4720504F4E47210052455306
:101ACC00554D494E4720504F4E4721005761697480
:101ADC00696E6720666F72206576656E742025646A
:101AEC002E2E2E0A005369676E616C20666F722071
:101AFC006576656E7420256420726563656976650C
:101B0C00642120546F74616C206576656E74733A31
:101B1C002025640A0A0A005369676E616C20666F9F
:101B2C0072206576656E7420256420726563656924
:101B3C007665642120546F74616C206576656E74D3
:101B4C00733A2025640A005369676E616C6C696E88
:101B5C0067206576656E742025642E2E2E0A005340
:101B6C0049474E414C4544210048656C6C6F2066DA
:101B7C00726F6D2031210048656C6C6F2066726F3E
:101B8C006D2032210048656C6C6F2066726F6D2081
:041B9C0033210000F1
:00000001FF
